{
  "contractName": "KavaraTokenSale",
  "abi": [
    {
      "inputs": [
        {
          "internalType": "contract KavaraToken",
          "name": "_tokenContract",
          "type": "address"
        },
        {
          "internalType": "uint256",
          "name": "_tokenPrice",
          "type": "uint256"
        }
      ],
      "payable": false,
      "stateMutability": "nonpayable",
      "type": "constructor"
    },
    {
      "anonymous": false,
      "inputs": [
        {
          "indexed": false,
          "internalType": "address",
          "name": "_buyer",
          "type": "address"
        },
        {
          "indexed": false,
          "internalType": "uint256",
          "name": "_amount",
          "type": "uint256"
        }
      ],
      "name": "Sell",
      "type": "event"
    },
    {
      "anonymous": false,
      "inputs": [
        {
          "indexed": true,
          "internalType": "address",
          "name": "_from",
          "type": "address"
        },
        {
          "indexed": true,
          "internalType": "address",
          "name": "_to",
          "type": "address"
        },
        {
          "indexed": false,
          "internalType": "uint256",
          "name": "_value",
          "type": "uint256"
        }
      ],
      "name": "Transfer",
      "type": "event"
    },
    {
      "constant": true,
      "inputs": [
        {
          "internalType": "address",
          "name": "",
          "type": "address"
        }
      ],
      "name": "balanceOf",
      "outputs": [
        {
          "internalType": "uint256",
          "name": "",
          "type": "uint256"
        }
      ],
      "payable": false,
      "stateMutability": "view",
      "type": "function"
    },
    {
      "constant": true,
      "inputs": [],
      "name": "tokenContract",
      "outputs": [
        {
          "internalType": "contract KavaraToken",
          "name": "",
          "type": "address"
        }
      ],
      "payable": false,
      "stateMutability": "view",
      "type": "function"
    },
    {
      "constant": true,
      "inputs": [],
      "name": "tokenPrice",
      "outputs": [
        {
          "internalType": "uint256",
          "name": "",
          "type": "uint256"
        }
      ],
      "payable": false,
      "stateMutability": "view",
      "type": "function"
    },
    {
      "constant": true,
      "inputs": [],
      "name": "tokensSold",
      "outputs": [
        {
          "internalType": "uint256",
          "name": "",
          "type": "uint256"
        }
      ],
      "payable": false,
      "stateMutability": "view",
      "type": "function"
    },
    {
      "constant": false,
      "inputs": [
        {
          "internalType": "uint256",
          "name": "_numberOfTokens",
          "type": "uint256"
        }
      ],
      "name": "buyTokens",
      "outputs": [],
      "payable": true,
      "stateMutability": "payable",
      "type": "function"
    },
    {
      "constant": false,
      "inputs": [],
      "name": "endSale",
      "outputs": [],
      "payable": false,
      "stateMutability": "nonpayable",
      "type": "function"
    },
    {
      "constant": false,
      "inputs": [
        {
          "internalType": "address",
          "name": "_to",
          "type": "address"
        },
        {
          "internalType": "uint256",
          "name": "_value",
          "type": "uint256"
        }
      ],
      "name": "transfer",
      "outputs": [
        {
          "internalType": "bool",
          "name": "success",
          "type": "bool"
        }
      ],
      "payable": false,
      "stateMutability": "nonpayable",
      "type": "function"
    }
  ],
  "bytecode": "0x608060405234801561001057600080fd5b50604051610c42380380610c428339818101604052604081101561003357600080fd5b810190808051906020019092919080519060200190929190505050336000806101000a81548173ffffffffffffffffffffffffffffffffffffffff021916908373ffffffffffffffffffffffffffffffffffffffff16021790555081600160006101000a81548173ffffffffffffffffffffffffffffffffffffffff021916908373ffffffffffffffffffffffffffffffffffffffff160217905550806002819055505050610b5b806100e76000396000f3fe6080604052600436106100705760003560e01c806355a373d61161004e57806355a373d6146100e557806370a082311461013c5780637ff9b596146101a1578063a9059cbb146101cc57610070565b80633610724e14610075578063380d831b146100a3578063518ab2a8146100ba575b600080fd5b6100a16004803603602081101561008b57600080fd5b810190808035906020019092919050505061023f565b005b3480156100af57600080fd5b506100b86104a7565b005b3480156100c657600080fd5b506100cf6108c8565b6040518082815260200191505060405180910390f35b3480156100f157600080fd5b506100fa6108ce565b604051808273ffffffffffffffffffffffffffffffffffffffff1673ffffffffffffffffffffffffffffffffffffffff16815260200191505060405180910390f35b34801561014857600080fd5b5061018b6004803603602081101561015f57600080fd5b81019080803573ffffffffffffffffffffffffffffffffffffffff1690602001909291905050506108f4565b6040518082815260200191505060405180910390f35b3480156101ad57600080fd5b506101b661090c565b6040518082815260200191505060405180910390f35b3480156101d857600080fd5b50610225600480360360408110156101ef57600080fd5b81019080803573ffffffffffffffffffffffffffffffffffffffff16906020019092919080359060200190929190505050610912565b604051808215151515815260200191505060405180910390f35b61024b81600254610afa565b341461025657600080fd5b80600160009054906101000a900473ffffffffffffffffffffffffffffffffffffffff1673ffffffffffffffffffffffffffffffffffffffff166370a08231306040518263ffffffff1660e01b8152600401808273ffffffffffffffffffffffffffffffffffffffff1673ffffffffffffffffffffffffffffffffffffffff16815260200191505060206040518083038186803b1580156102f657600080fd5b505afa15801561030a573d6000803e3d6000fd5b505050506040513d602081101561032057600080fd5b8101908080519060200190929190505050101561033c57600080fd5b600160009054906101000a900473ffffffffffffffffffffffffffffffffffffffff1673ffffffffffffffffffffffffffffffffffffffff1663a9059cbb33836040518363ffffffff1660e01b8152600401808373ffffffffffffffffffffffffffffffffffffffff1673ffffffffffffffffffffffffffffffffffffffff16815260200182815260200192505050602060405180830381600087803b1580156103e557600080fd5b505af11580156103f9573d6000803e3d6000fd5b505050506040513d602081101561040f57600080fd5b810190808051906020019092919050505061042957600080fd5b806003600082825401925050819055507f5e5e995ce3133561afceaa51a9a154d5db228cd7525d34df5185582c18d3df093382604051808373ffffffffffffffffffffffffffffffffffffffff1673ffffffffffffffffffffffffffffffffffffffff1681526020018281526020019250505060405180910390a150565b6000809054906101000a900473ffffffffffffffffffffffffffffffffffffffff1673ffffffffffffffffffffffffffffffffffffffff163373ffffffffffffffffffffffffffffffffffffffff161461050057600080fd5b600160009054906101000a900473ffffffffffffffffffffffffffffffffffffffff1673ffffffffffffffffffffffffffffffffffffffff1663a9059cbb6000809054906101000a900473ffffffffffffffffffffffffffffffffffffffff16600160009054906101000a900473ffffffffffffffffffffffffffffffffffffffff1673ffffffffffffffffffffffffffffffffffffffff166370a08231306040518263ffffffff1660e01b8152600401808273ffffffffffffffffffffffffffffffffffffffff1673ffffffffffffffffffffffffffffffffffffffff16815260200191505060206040518083038186803b1580156105ff57600080fd5b505afa158015610613573d6000803e3d6000fd5b505050506040513d602081101561062957600080fd5b81019080805190602001909291905050506040518363ffffffff1660e01b8152600401808373ffffffffffffffffffffffffffffffffffffffff1673ffffffffffffffffffffffffffffffffffffffff16815260200182815260200192505050602060405180830381600087803b1580156106a357600080fd5b505af11580156106b7573d6000803e3d6000fd5b505050506040513d60208110156106cd57600080fd5b81019080805190602001909291905050506106e757600080fd5b600160009054906101000a900473ffffffffffffffffffffffffffffffffffffffff1673ffffffffffffffffffffffffffffffffffffffff1663a9059cbb6000809054906101000a900473ffffffffffffffffffffffffffffffffffffffff16600160009054906101000a900473ffffffffffffffffffffffffffffffffffffffff1673ffffffffffffffffffffffffffffffffffffffff166370a08231306040518263ffffffff1660e01b8152600401808273ffffffffffffffffffffffffffffffffffffffff1673ffffffffffffffffffffffffffffffffffffffff16815260200191505060206040518083038186803b1580156107e657600080fd5b505afa1580156107fa573d6000803e3d6000fd5b505050506040513d602081101561081057600080fd5b81019080805190602001909291905050506040518363ffffffff1660e01b8152600401808373ffffffffffffffffffffffffffffffffffffffff1673ffffffffffffffffffffffffffffffffffffffff16815260200182815260200192505050602060405180830381600087803b15801561088a57600080fd5b505af115801561089e573d6000803e3d6000fd5b505050506040513d60208110156108b457600080fd5b810190808051906020019092919050505050565b60035481565b600160009054906101000a900473ffffffffffffffffffffffffffffffffffffffff1681565b60046020528060005260406000206000915090505481565b60025481565b60008060009054906101000a900473ffffffffffffffffffffffffffffffffffffffff1673ffffffffffffffffffffffffffffffffffffffff168373ffffffffffffffffffffffffffffffffffffffff161461096d57600080fd5b3073ffffffffffffffffffffffffffffffffffffffff163373ffffffffffffffffffffffffffffffffffffffff16146109a557600080fd5b81600460003373ffffffffffffffffffffffffffffffffffffffff1673ffffffffffffffffffffffffffffffffffffffff1681526020019081526020016000205410156109f157600080fd5b81600460003373ffffffffffffffffffffffffffffffffffffffff1673ffffffffffffffffffffffffffffffffffffffff1681526020019081526020016000206000828254039250508190555081600460008573ffffffffffffffffffffffffffffffffffffffff1673ffffffffffffffffffffffffffffffffffffffff168152602001908152602001600020600082825401925050819055508273ffffffffffffffffffffffffffffffffffffffff163373ffffffffffffffffffffffffffffffffffffffff167fddf252ad1be2c89b69c2b068fc378daa952ba7f163c4a11628f55a4df523b3ef846040518082815260200191505060405180910390a36001905092915050565b600080821480610b175750828283850292508281610b1457fe5b04145b610b2057600080fd5b9291505056fea265627a7a7231582066c52e68265623354a519fe25c92cb6dcc96eea96dfdc6bba1e57388139b9e8764736f6c63430005100032",
  "source": "pragma solidity >0.4.2;\r\n\r\nimport \"./KavaraToken.sol\";\r\n\r\ncontract KavaraTokenSale {\r\n    address admin;\r\n    KavaraToken public tokenContract;\r\n    uint256 public tokenPrice;\r\n    uint256 public tokensSold;\r\n    event Transfer(\r\n        address indexed _from,\r\n        address indexed _to,\r\n        uint256 _value\r\n    );\r\n    mapping(address => uint256) public balanceOf;\r\n\r\n    event Sell(address _buyer, uint256 _amount);\r\n\r\n    constructor (KavaraToken _tokenContract, uint256 _tokenPrice) public{\r\n        admin = msg.sender;\r\n        tokenContract = _tokenContract;\r\n        tokenPrice = _tokenPrice;\r\n    }\r\n\r\n    function multiply(uint x, uint y) internal pure returns (uint z) {\r\n        require(y == 0 || (z = x * y) / y == x);\r\n    }\r\n\r\n    function buyTokens(uint256 _numberOfTokens) public payable {\r\n        require(msg.value == multiply(_numberOfTokens, tokenPrice));\r\n        require(tokenContract.balanceOf(address(this)) >= _numberOfTokens);\r\n        require(tokenContract.transfer(msg.sender, _numberOfTokens));\r\n\r\n        tokensSold += _numberOfTokens;\r\n\r\n        emit Sell(msg.sender, _numberOfTokens);\r\n    }\r\n    //Ending Token\r\n    function endSale() public {\r\n        require(msg.sender==admin);\r\n        require(tokenContract.transfer(admin, tokenContract.balanceOf(address(this))));\r\n        tokenContract.transfer(admin, tokenContract.balanceOf(address(this)) );\r\n    }\r\n\r\n    function transfer(address _to, uint256 _value) public returns (bool success) {\r\n        \r\n        require(_to==admin);\r\n        require(msg.sender==address(this));\r\n        require(balanceOf[msg.sender] >= _value);\r\n        balanceOf[msg.sender] -= _value;\r\n        balanceOf[_to] += _value;\r\n        emit Transfer(msg.sender, _to, _value);\r\n\r\n        return true;\r\n    }\r\n}\r\n",
  "sourcePath": "D:\\crypto_token\\contracts\\KavaraTokenSale.sol",
  "compiler": {
    "name": "solc",
    "version": "0.5.16+commit.9c3226ce.Emscripten.clang"
  },
  "schemaVersion": "3.4.3",
  "updatedAt": "2021-11-14T09:48:20.888Z",
  "networkType": "ethereum",
  "devdoc": {
    "methods": {}
  },
  "userdoc": {
    "methods": {}
  }
}